{
  "abi": [
    {
      "type": "constructor",
      "inputs": [
        {
          "name": "_token",
          "type": "address",
          "internalType": "contract ERC20"
        },
        {
          "name": "_merkleRoot",
          "type": "bytes32",
          "internalType": "bytes32"
        }
      ],
      "stateMutability": "nonpayable"
    },
    {
      "type": "function",
      "name": "claim",
      "inputs": [
        {
          "name": "amount",
          "type": "uint256",
          "internalType": "uint256"
        },
        {
          "name": "proof",
          "type": "bytes32[]",
          "internalType": "bytes32[]"
        }
      ],
      "outputs": [],
      "stateMutability": "nonpayable"
    },
    {
      "type": "function",
      "name": "hasClaimed",
      "inputs": [
        {
          "name": "",
          "type": "address",
          "internalType": "address"
        }
      ],
      "outputs": [
        {
          "name": "",
          "type": "bool",
          "internalType": "bool"
        }
      ],
      "stateMutability": "view"
    },
    {
      "type": "function",
      "name": "merkleRoot",
      "inputs": [],
      "outputs": [
        {
          "name": "",
          "type": "bytes32",
          "internalType": "bytes32"
        }
      ],
      "stateMutability": "view"
    },
    {
      "type": "function",
      "name": "token",
      "inputs": [],
      "outputs": [
        {
          "name": "",
          "type": "address",
          "internalType": "contract ERC20"
        }
      ],
      "stateMutability": "view"
    },
    {
      "type": "event",
      "name": "Claim",
      "inputs": [
        {
          "name": "to",
          "type": "address",
          "indexed": true,
          "internalType": "address"
        },
        {
          "name": "amount",
          "type": "uint256",
          "indexed": false,
          "internalType": "uint256"
        }
      ],
      "anonymous": false
    },
    {
      "type": "error",
      "name": "AlreadyClaimed",
      "inputs": []
    },
    {
      "type": "error",
      "name": "NotInMerkle",
      "inputs": []
    }
  ],
  "bytecode": {
    "object": "0x60a060405234801561001057600080fd5b506040516104dd3803806104dd83398101604081905261002f91610057565b608052600080546001600160a01b0319166001600160a01b0392909216919091179055610091565b6000806040838503121561006a57600080fd5b82516001600160a01b038116811461008157600080fd5b6020939093015192949293505050565b60805161042b6100b260003960008181605601526101a6015261042b6000f3fe608060405234801561001057600080fd5b506004361061004c5760003560e01c80632eb4a7ab146100515780632f52ebb71461008b57806373b2e80e146100a0578063fc0c546a146100d3575b600080fd5b6100787f000000000000000000000000000000000000000000000000000000000000000081565b6040519081526020015b60405180910390f35b61009e610099366004610315565b6100fe565b005b6100c36100ae366004610394565b60016020526000908152604090205460ff1681565b6040519015158152602001610082565b6000546100e6906001600160a01b031681565b6040516001600160a01b039091168152602001610082565b3360009081526001602052604090205460ff161561012f57604051630c8d9eab60e31b815260040160405180910390fd5b6040516bffffffffffffffffffffffff193360601b1660208201526034810184905260009060540160405160208183030381529060405280519060200120905060006101d18484808060200260200160405190810160405280939291908181526020018383602002808284376000920191909152507f0000000000000000000000000000000000000000000000000000000000000000925086915061028a9050565b9050806101f15760405163452c2df160e11b815260040160405180910390fd5b336000818152600160208190526040808320805460ff19169092179091559054905163a9059cbb60e01b81526004810192909252602482018790526001600160a01b03169063a9059cbb906044016020604051808303816000875af115801561025e573d6000803e3d6000fd5b505050506040513d601f19601f8201168201806040525081019061028291906103bd565b505050505050565b60008261029785846102a0565b14949350505050565b600081815b84518110156102db576102d1828683815181106102c4576102c46103df565b60200260200101516102e3565b91506001016102a5565b509392505050565b60008183106102ff57600082815260208490526040902061030e565b60008381526020839052604090205b9392505050565b60008060006040848603121561032a57600080fd5b83359250602084013567ffffffffffffffff8082111561034957600080fd5b818601915086601f83011261035d57600080fd5b81358181111561036c57600080fd5b8760208260051b850101111561038157600080fd5b6020830194508093505050509250925092565b6000602082840312156103a657600080fd5b81356001600160a01b038116811461030e57600080fd5b6000602082840312156103cf57600080fd5b8151801515811461030e57600080fd5b634e487b7160e01b600052603260045260246000fdfea2646970667358221220086403f0c2c6784a161147f694f9003a18b1768c4132741d19684db38686d39064736f6c63430008170033",
    "linkReferences": {}
  },
  "methodIdentifiers": {
    "claim(uint256,bytes32[])": "2f52ebb7",
    "hasClaimed(address)": "73b2e80e",
    "merkleRoot()": "2eb4a7ab",
    "token()": "fc0c546a"
  },
  "id": 6
}